{
  "_format": "hh-sol-artifact-1",
  "contractName": "MockPool",
  "sourceName": "contracts/mocks/MockPool.sol",
  "abi": [
    {
      "inputs": [
        {
          "internalType": "address",
          "name": "",
          "type": "address"
        }
      ],
      "name": "aTokenAddresses",
      "outputs": [
        {
          "internalType": "address",
          "name": "",
          "type": "address"
        }
      ],
      "stateMutability": "view",
      "type": "function"
    },
    {
      "inputs": [
        {
          "internalType": "address",
          "name": "asset",
          "type": "address"
        }
      ],
      "name": "getReserveData",
      "outputs": [
        {
          "internalType": "uint256",
          "name": "configuration",
          "type": "uint256"
        },
        {
          "internalType": "uint128",
          "name": "liquidityIndex",
          "type": "uint128"
        },
        {
          "internalType": "uint128",
          "name": "variableBorrowIndex",
          "type": "uint128"
        },
        {
          "internalType": "uint128",
          "name": "currentLiquidityRate",
          "type": "uint128"
        },
        {
          "internalType": "uint128",
          "name": "currentVariableBorrowRate",
          "type": "uint128"
        },
        {
          "internalType": "uint128",
          "name": "currentStableBorrowRate",
          "type": "uint128"
        },
        {
          "internalType": "uint40",
          "name": "lastUpdateTimestamp",
          "type": "uint40"
        },
        {
          "internalType": "address",
          "name": "aTokenAddress",
          "type": "address"
        },
        {
          "internalType": "address",
          "name": "stableDebtTokenAddress",
          "type": "address"
        },
        {
          "internalType": "address",
          "name": "variableDebtTokenAddress",
          "type": "address"
        },
        {
          "internalType": "address",
          "name": "interestRateStrategyAddress",
          "type": "address"
        },
        {
          "internalType": "uint8",
          "name": "id",
          "type": "uint8"
        }
      ],
      "stateMutability": "view",
      "type": "function"
    },
    {
      "inputs": [
        {
          "internalType": "address",
          "name": "asset",
          "type": "address"
        },
        {
          "internalType": "address",
          "name": "aToken",
          "type": "address"
        }
      ],
      "name": "setATokenAddress",
      "outputs": [],
      "stateMutability": "nonpayable",
      "type": "function"
    },
    {
      "inputs": [
        {
          "internalType": "address",
          "name": "asset",
          "type": "address"
        },
        {
          "internalType": "uint256",
          "name": "amount",
          "type": "uint256"
        },
        {
          "internalType": "address",
          "name": "onBehalfOf",
          "type": "address"
        },
        {
          "internalType": "uint16",
          "name": "referralCode",
          "type": "uint16"
        }
      ],
      "name": "supply",
      "outputs": [],
      "stateMutability": "nonpayable",
      "type": "function"
    },
    {
      "inputs": [
        {
          "internalType": "address",
          "name": "",
          "type": "address"
        },
        {
          "internalType": "address",
          "name": "",
          "type": "address"
        }
      ],
      "name": "userBalances",
      "outputs": [
        {
          "internalType": "uint256",
          "name": "",
          "type": "uint256"
        }
      ],
      "stateMutability": "view",
      "type": "function"
    },
    {
      "inputs": [
        {
          "internalType": "address",
          "name": "asset",
          "type": "address"
        },
        {
          "internalType": "uint256",
          "name": "amount",
          "type": "uint256"
        },
        {
          "internalType": "address",
          "name": "to",
          "type": "address"
        }
      ],
      "name": "withdraw",
      "outputs": [
        {
          "internalType": "uint256",
          "name": "",
          "type": "uint256"
        }
      ],
      "stateMutability": "nonpayable",
      "type": "function"
    }
  ],
  "bytecode": "0x6080806040523461001657610370908161001c8239f35b600080fdfe60806040818152600436101561001457600080fd5b600091823560e01c908163296f5b8a146102bc5750806335ea6a751461022b578063617ba0371461012f57806369328dec14610100578063adb51980146100b35763bb74e23e1461006457600080fd5b346100af57806003193601126100af5761007c6102f3565b610084610324565b6001600160a01b039182168452602084905291832080546001600160a01b0319169190921617905580f35b5080fd5b50346100af57806003193601126100af576020916100cf6102f3565b826100d8610324565b6001600160a01b03928316845260018652922091166000908152908352819020549051908152f35b50346100af5760603660031901126100af5760209061011d6102f3565b5061012661030e565b50516024358152f35b50346100af5760803660031901126100af576101496102f3565b9060243561015561030e565b9260643561ffff811603610227576001600160a01b0390811680865260016020908152848720958316808852959052838620805484810191908210610213575585526020859052828520541692849190843b1561020f5760449083855196879485936340c10f1960e01b8552600485015260248401525af18015610205576101db578280f35b67ffffffffffffffff82116101f1575238808280f35b634e487b7160e01b83526041600452602483fd5b81513d85823e3d90fd5b8280fd5b634e487b7160e01b88526011600452602488fd5b8480fd5b50346100af5760203660031901126100af57610180916001600160a01b03806102526102f3565b1682528160205282822054168251928284526b033b2e3c9fd0803ce8000000908160208601528401528160608401528160808401528160a084015264ffffffffff421660c084015260e0830152806101008301528061012083015280610140830152610160820152f35b9190503461020f57602036600319011261020f576020926001600160a01b039190826102e66102f3565b1681528085522054168152f35b600435906001600160a01b038216820361030957565b600080fd5b604435906001600160a01b038216820361030957565b602435906001600160a01b03821682036103095756fea264697066735822122008f89327d275317b66e1fa6e59018910639769807fbcfd01aa41914c26dcff0064736f6c63430008180033",
  "linkReferences": {},
  "deployedLinkReferences": {}
}