{
  "_format": "hh-sol-artifact-1",
  "contractName": "MockPool",
  "sourceName": "contracts/mocks/MockPool.sol",
  "abi": [
    {
      "inputs": [],
      "name": "ADDRESSES_PROVIDER",
      "outputs": [
        {
          "internalType": "address",
          "name": "",
          "type": "address"
        }
      ],
      "stateMutability": "view",
      "type": "function"
    },
    {
      "inputs": [
        {
          "internalType": "address",
          "name": "",
          "type": "address"
        }
      ],
      "name": "aTokenAddresses",
      "outputs": [
        {
          "internalType": "address",
          "name": "",
          "type": "address"
        }
      ],
      "stateMutability": "view",
      "type": "function"
    },
    {
      "inputs": [],
      "name": "addressesProvider",
      "outputs": [
        {
          "internalType": "address",
          "name": "",
          "type": "address"
        }
      ],
      "stateMutability": "view",
      "type": "function"
    },
    {
      "inputs": [
        {
          "internalType": "address",
          "name": "asset",
          "type": "address"
        }
      ],
      "name": "getReserveData",
      "outputs": [
        {
          "internalType": "uint256",
          "name": "configuration",
          "type": "uint256"
        },
        {
          "internalType": "uint128",
          "name": "liquidityIndex",
          "type": "uint128"
        },
        {
          "internalType": "uint128",
          "name": "variableBorrowIndex",
          "type": "uint128"
        },
        {
          "internalType": "uint128",
          "name": "currentLiquidityRate",
          "type": "uint128"
        },
        {
          "internalType": "uint128",
          "name": "currentVariableBorrowRate",
          "type": "uint128"
        },
        {
          "internalType": "uint128",
          "name": "currentStableBorrowRate",
          "type": "uint128"
        },
        {
          "internalType": "uint40",
          "name": "lastUpdateTimestamp",
          "type": "uint40"
        },
        {
          "internalType": "address",
          "name": "aTokenAddress",
          "type": "address"
        },
        {
          "internalType": "address",
          "name": "stableDebtTokenAddress",
          "type": "address"
        },
        {
          "internalType": "address",
          "name": "variableDebtTokenAddress",
          "type": "address"
        },
        {
          "internalType": "address",
          "name": "interestRateStrategyAddress",
          "type": "address"
        },
        {
          "internalType": "uint8",
          "name": "id",
          "type": "uint8"
        }
      ],
      "stateMutability": "view",
      "type": "function"
    },
    {
      "inputs": [
        {
          "internalType": "address",
          "name": "asset",
          "type": "address"
        },
        {
          "internalType": "address",
          "name": "aToken",
          "type": "address"
        }
      ],
      "name": "setATokenAddress",
      "outputs": [],
      "stateMutability": "nonpayable",
      "type": "function"
    },
    {
      "inputs": [
        {
          "internalType": "address",
          "name": "provider",
          "type": "address"
        }
      ],
      "name": "setAddressesProvider",
      "outputs": [],
      "stateMutability": "nonpayable",
      "type": "function"
    },
    {
      "inputs": [
        {
          "internalType": "address",
          "name": "asset",
          "type": "address"
        },
        {
          "internalType": "uint256",
          "name": "amount",
          "type": "uint256"
        },
        {
          "internalType": "address",
          "name": "onBehalfOf",
          "type": "address"
        },
        {
          "internalType": "uint16",
          "name": "referralCode",
          "type": "uint16"
        }
      ],
      "name": "supply",
      "outputs": [],
      "stateMutability": "nonpayable",
      "type": "function"
    },
    {
      "inputs": [
        {
          "internalType": "address",
          "name": "",
          "type": "address"
        },
        {
          "internalType": "address",
          "name": "",
          "type": "address"
        }
      ],
      "name": "userBalances",
      "outputs": [
        {
          "internalType": "uint256",
          "name": "",
          "type": "uint256"
        }
      ],
      "stateMutability": "view",
      "type": "function"
    },
    {
      "inputs": [
        {
          "internalType": "address",
          "name": "asset",
          "type": "address"
        },
        {
          "internalType": "uint256",
          "name": "amount",
          "type": "uint256"
        },
        {
          "internalType": "address",
          "name": "to",
          "type": "address"
        }
      ],
      "name": "withdraw",
      "outputs": [
        {
          "internalType": "uint256",
          "name": "",
          "type": "uint256"
        }
      ],
      "stateMutability": "nonpayable",
      "type": "function"
    }
  ],
  "bytecode": "0x6080806040523461001657610421908161001c8239f35b600080fdfe60806040818152600436101561001457600080fd5b600091823560e01c9081630542975c1461037f57508063296f5b8a1461034657806335ea6a75146102b5578063617ba037146101b95780636722997a1461017857806369328dec14610149578063adb51980146100fc578063bb74e23e146100b05763c72c4d101461008557600080fd5b346100ac57816003193601126100ac5760025490516001600160a01b039091168152602090f35b5080fd5b50346100ac57806003193601126100ac576100c96103a4565b6100d16103d5565b6001600160a01b039182168452602084905291832080546001600160a01b0319169190921617905580f35b50346100ac57806003193601126100ac576020916101186103a4565b826101216103d5565b6001600160a01b03928316845260018652922091166000908152908352819020549051908152f35b50346100ac5760603660031901126100ac576020906101666103a4565b5061016f6103bf565b50516024358152f35b82346101b65760203660031901126101b6576001600160a01b0361019a6103a4565b166bffffffffffffffffffffffff60a01b600254161760025580f35b80fd5b50346100ac5760803660031901126100ac576101d36103a4565b906024356101df6103bf565b9260643561ffff8116036102b1576001600160a01b039081168086526001602090815284872095831680885295905283862080548481019190821061029d575585526020859052828520541692849190843b156102995760449083855196879485936340c10f1960e01b8552600485015260248401525af1801561028f57610265578280f35b67ffffffffffffffff821161027b575238808280f35b634e487b7160e01b83526041600452602483fd5b81513d85823e3d90fd5b8280fd5b634e487b7160e01b88526011600452602488fd5b8480fd5b50346100ac5760203660031901126100ac57610180916001600160a01b03806102dc6103a4565b1682528160205282822054168251928284526b033b2e3c9fd0803ce8000000908160208601528401528160608401528160808401528160a084015264ffffffffff421660c084015260e0830152806101008301528061012083015280610140830152610160820152f35b50346100ac5760203660031901126100ac576020916001600160a01b039082908261036f6103a4565b1681528085522054169051908152f35b8390346100ac57816003193601126100ac576002546001600160a01b03168152602090f35b600435906001600160a01b03821682036103ba57565b600080fd5b604435906001600160a01b03821682036103ba57565b602435906001600160a01b03821682036103ba5756fea26469706673582212203a69f7c5f2d2ccd8208f5121bdcc43df8841dd23781ae4def7b8b0bbd38e92c864736f6c63430008180033",
  "linkReferences": {},
  "deployedLinkReferences": {}
}