{"contracts/mocks/MockPool.sol":{"MockPool":{"abi":[{"inputs":[{"internalType":"address","name":"","type":"address"}],"name":"aTokenAddresses","outputs":[{"internalType":"address","name":"","type":"address"}],"stateMutability":"view","type":"function"},{"inputs":[{"internalType":"address","name":"asset","type":"address"}],"name":"getReserveData","outputs":[{"internalType":"uint256","name":"configuration","type":"uint256"},{"internalType":"uint128","name":"liquidityIndex","type":"uint128"},{"internalType":"uint128","name":"variableBorrowIndex","type":"uint128"},{"internalType":"uint128","name":"currentLiquidityRate","type":"uint128"},{"internalType":"uint128","name":"currentVariableBorrowRate","type":"uint128"},{"internalType":"uint128","name":"currentStableBorrowRate","type":"uint128"},{"internalType":"uint40","name":"lastUpdateTimestamp","type":"uint40"},{"internalType":"address","name":"aTokenAddress","type":"address"},{"internalType":"address","name":"stableDebtTokenAddress","type":"address"},{"internalType":"address","name":"variableDebtTokenAddress","type":"address"},{"internalType":"address","name":"interestRateStrategyAddress","type":"address"},{"internalType":"uint8","name":"id","type":"uint8"}],"stateMutability":"view","type":"function"},{"inputs":[{"internalType":"address","name":"asset","type":"address"},{"internalType":"address","name":"aToken","type":"address"}],"name":"setATokenAddress","outputs":[],"stateMutability":"nonpayable","type":"function"},{"inputs":[{"internalType":"address","name":"asset","type":"address"},{"internalType":"uint256","name":"amount","type":"uint256"},{"internalType":"address","name":"onBehalfOf","type":"address"},{"internalType":"uint16","name":"referralCode","type":"uint16"}],"name":"supply","outputs":[],"stateMutability":"nonpayable","type":"function"},{"inputs":[{"internalType":"address","name":"","type":"address"},{"internalType":"address","name":"","type":"address"}],"name":"userBalances","outputs":[{"internalType":"uint256","name":"","type":"uint256"}],"stateMutability":"view","type":"function"},{"inputs":[{"internalType":"address","name":"asset","type":"address"},{"internalType":"uint256","name":"amount","type":"uint256"},{"internalType":"address","name":"to","type":"address"}],"name":"withdraw","outputs":[{"internalType":"uint256","name":"","type":"uint256"}],"stateMutability":"nonpayable","type":"function"}],"evm":{"bytecode":{"linkReferences":{},"object":"6080806040523461001657610370908161001c8239f35b600080fdfe60806040818152600436101561001457600080fd5b600091823560e01c908163296f5b8a146102bc5750806335ea6a751461022b578063617ba0371461012f57806369328dec14610100578063adb51980146100b35763bb74e23e1461006457600080fd5b346100af57806003193601126100af5761007c6102f3565b610084610324565b6001600160a01b039182168452602084905291832080546001600160a01b0319169190921617905580f35b5080fd5b50346100af57806003193601126100af576020916100cf6102f3565b826100d8610324565b6001600160a01b03928316845260018652922091166000908152908352819020549051908152f35b50346100af5760603660031901126100af5760209061011d6102f3565b5061012661030e565b50516024358152f35b50346100af5760803660031901126100af576101496102f3565b9060243561015561030e565b9260643561ffff811603610227576001600160a01b0390811680865260016020908152848720958316808852959052838620805484810191908210610213575585526020859052828520541692849190843b1561020f5760449083855196879485936340c10f1960e01b8552600485015260248401525af18015610205576101db578280f35b67ffffffffffffffff82116101f1575238808280f35b634e487b7160e01b83526041600452602483fd5b81513d85823e3d90fd5b8280fd5b634e487b7160e01b88526011600452602488fd5b8480fd5b50346100af5760203660031901126100af57610180916001600160a01b03806102526102f3565b1682528160205282822054168251928284526b033b2e3c9fd0803ce8000000908160208601528401528160608401528160808401528160a084015264ffffffffff421660c084015260e0830152806101008301528061012083015280610140830152610160820152f35b9190503461020f57602036600319011261020f576020926001600160a01b039190826102e66102f3565b1681528085522054168152f35b600435906001600160a01b038216820361030957565b600080fd5b604435906001600160a01b038216820361030957565b602435906001600160a01b03821682036103095756fea264697066735822122008f89327d275317b66e1fa6e59018910639769807fbcfd01aa41914c26dcff0064736f6c63430008180033","opcodes":"PUSH1 0x80 DUP1 PUSH1 0x40 MSTORE CALLVALUE PUSH2 0x16 JUMPI PUSH2 0x370 SWAP1 DUP2 PUSH2 0x1C DUP3 CODECOPY RETURN JUMPDEST PUSH1 0x0 DUP1 REVERT INVALID PUSH1 0x80 PUSH1 0x40 DUP2 DUP2 MSTORE PUSH1 0x4 CALLDATASIZE LT ISZERO PUSH2 0x14 JUMPI PUSH1 0x0 DUP1 REVERT JUMPDEST PUSH1 0x0 SWAP2 DUP3 CALLDATALOAD PUSH1 0xE0 SHR SWAP1 DUP2 PUSH4 0x296F5B8A EQ PUSH2 0x2BC JUMPI POP DUP1 PUSH4 0x35EA6A75 EQ PUSH2 0x22B JUMPI DUP1 PUSH4 0x617BA037 EQ PUSH2 0x12F JUMPI DUP1 PUSH4 0x69328DEC EQ PUSH2 0x100 JUMPI DUP1 PUSH4 0xADB51980 EQ PUSH2 0xB3 JUMPI PUSH4 0xBB74E23E EQ PUSH2 0x64 JUMPI PUSH1 0x0 DUP1 REVERT JUMPDEST CALLVALUE PUSH2 0xAF JUMPI DUP1 PUSH1 0x3 NOT CALLDATASIZE ADD SLT PUSH2 0xAF JUMPI PUSH2 0x7C PUSH2 0x2F3 JUMP JUMPDEST PUSH2 0x84 PUSH2 0x324 JUMP JUMPDEST PUSH1 0x1 PUSH1 0x1 PUSH1 0xA0 SHL SUB SWAP2 DUP3 AND DUP5 MSTORE PUSH1 0x20 DUP5 SWAP1 MSTORE SWAP2 DUP4 KECCAK256 DUP1 SLOAD PUSH1 0x1 PUSH1 0x1 PUSH1 0xA0 SHL SUB NOT AND SWAP2 SWAP1 SWAP3 AND OR SWAP1 SSTORE DUP1 RETURN JUMPDEST POP DUP1 REVERT JUMPDEST POP CALLVALUE PUSH2 0xAF JUMPI DUP1 PUSH1 0x3 NOT CALLDATASIZE ADD SLT PUSH2 0xAF JUMPI PUSH1 0x20 SWAP2 PUSH2 0xCF PUSH2 0x2F3 JUMP JUMPDEST DUP3 PUSH2 0xD8 PUSH2 0x324 JUMP JUMPDEST PUSH1 0x1 PUSH1 0x1 PUSH1 0xA0 SHL SUB SWAP3 DUP4 AND DUP5 MSTORE PUSH1 0x1 DUP7 MSTORE SWAP3 KECCAK256 SWAP2 AND PUSH1 0x0 SWAP1 DUP2 MSTORE SWAP1 DUP4 MSTORE DUP2 SWAP1 KECCAK256 SLOAD SWAP1 MLOAD SWAP1 DUP2 MSTORE RETURN JUMPDEST POP CALLVALUE PUSH2 0xAF JUMPI PUSH1 0x60 CALLDATASIZE PUSH1 0x3 NOT ADD SLT PUSH2 0xAF JUMPI PUSH1 0x20 SWAP1 PUSH2 0x11D PUSH2 0x2F3 JUMP JUMPDEST POP PUSH2 0x126 PUSH2 0x30E JUMP JUMPDEST POP MLOAD PUSH1 0x24 CALLDATALOAD DUP2 MSTORE RETURN JUMPDEST POP CALLVALUE PUSH2 0xAF JUMPI PUSH1 0x80 CALLDATASIZE PUSH1 0x3 NOT ADD SLT PUSH2 0xAF JUMPI PUSH2 0x149 PUSH2 0x2F3 JUMP JUMPDEST SWAP1 PUSH1 0x24 CALLDATALOAD PUSH2 0x155 PUSH2 0x30E JUMP JUMPDEST SWAP3 PUSH1 0x64 CALLDATALOAD PUSH2 0xFFFF DUP2 AND SUB PUSH2 0x227 JUMPI PUSH1 0x1 PUSH1 0x1 PUSH1 0xA0 SHL SUB SWAP1 DUP2 AND DUP1 DUP7 MSTORE PUSH1 0x1 PUSH1 0x20 SWAP1 DUP2 MSTORE DUP5 DUP8 KECCAK256 SWAP6 DUP4 AND DUP1 DUP9 MSTORE SWAP6 SWAP1 MSTORE DUP4 DUP7 KECCAK256 DUP1 SLOAD DUP5 DUP2 ADD SWAP2 SWAP1 DUP3 LT PUSH2 0x213 JUMPI SSTORE DUP6 MSTORE PUSH1 0x20 DUP6 SWAP1 MSTORE DUP3 DUP6 KECCAK256 SLOAD AND SWAP3 DUP5 SWAP2 SWAP1 DUP5 EXTCODESIZE ISZERO PUSH2 0x20F JUMPI PUSH1 0x44 SWAP1 DUP4 DUP6 MLOAD SWAP7 DUP8 SWAP5 DUP6 SWAP4 PUSH4 0x40C10F19 PUSH1 0xE0 SHL DUP6 MSTORE PUSH1 0x4 DUP6 ADD MSTORE PUSH1 0x24 DUP5 ADD MSTORE GAS CALL DUP1 ISZERO PUSH2 0x205 JUMPI PUSH2 0x1DB JUMPI DUP3 DUP1 RETURN JUMPDEST PUSH8 0xFFFFFFFFFFFFFFFF DUP3 GT PUSH2 0x1F1 JUMPI MSTORE CODESIZE DUP1 DUP3 DUP1 RETURN JUMPDEST PUSH4 0x4E487B71 PUSH1 0xE0 SHL DUP4 MSTORE PUSH1 0x41 PUSH1 0x4 MSTORE PUSH1 0x24 DUP4 REVERT JUMPDEST DUP2 MLOAD RETURNDATASIZE DUP6 DUP3 RETURNDATACOPY RETURNDATASIZE SWAP1 REVERT JUMPDEST DUP3 DUP1 REVERT JUMPDEST PUSH4 0x4E487B71 PUSH1 0xE0 SHL DUP9 MSTORE PUSH1 0x11 PUSH1 0x4 MSTORE PUSH1 0x24 DUP9 REVERT JUMPDEST DUP5 DUP1 REVERT JUMPDEST POP CALLVALUE PUSH2 0xAF JUMPI PUSH1 0x20 CALLDATASIZE PUSH1 0x3 NOT ADD SLT PUSH2 0xAF JUMPI PUSH2 0x180 SWAP2 PUSH1 0x1 PUSH1 0x1 PUSH1 0xA0 SHL SUB DUP1 PUSH2 0x252 PUSH2 0x2F3 JUMP JUMPDEST AND DUP3 MSTORE DUP2 PUSH1 0x20 MSTORE DUP3 DUP3 KECCAK256 SLOAD AND DUP3 MLOAD SWAP3 DUP3 DUP5 MSTORE PUSH12 0x33B2E3C9FD0803CE8000000 SWAP1 DUP2 PUSH1 0x20 DUP7 ADD MSTORE DUP5 ADD MSTORE DUP2 PUSH1 0x60 DUP5 ADD MSTORE DUP2 PUSH1 0x80 DUP5 ADD MSTORE DUP2 PUSH1 0xA0 DUP5 ADD MSTORE PUSH5 0xFFFFFFFFFF TIMESTAMP AND PUSH1 0xC0 DUP5 ADD MSTORE PUSH1 0xE0 DUP4 ADD MSTORE DUP1 PUSH2 0x100 DUP4 ADD MSTORE DUP1 PUSH2 0x120 DUP4 ADD MSTORE DUP1 PUSH2 0x140 DUP4 ADD MSTORE PUSH2 0x160 DUP3 ADD MSTORE RETURN JUMPDEST SWAP2 SWAP1 POP CALLVALUE PUSH2 0x20F JUMPI PUSH1 0x20 CALLDATASIZE PUSH1 0x3 NOT ADD SLT PUSH2 0x20F JUMPI PUSH1 0x20 SWAP3 PUSH1 0x1 PUSH1 0x1 PUSH1 0xA0 SHL SUB SWAP2 SWAP1 DUP3 PUSH2 0x2E6 PUSH2 0x2F3 JUMP JUMPDEST AND DUP2 MSTORE DUP1 DUP6 MSTORE KECCAK256 SLOAD AND DUP2 MSTORE RETURN JUMPDEST PUSH1 0x4 CALLDATALOAD SWAP1 PUSH1 0x1 PUSH1 0x1 PUSH1 0xA0 SHL SUB DUP3 AND DUP3 SUB PUSH2 0x309 JUMPI JUMP JUMPDEST PUSH1 0x0 DUP1 REVERT JUMPDEST PUSH1 0x44 CALLDATALOAD SWAP1 PUSH1 0x1 PUSH1 0x1 PUSH1 0xA0 SHL SUB DUP3 AND DUP3 SUB PUSH2 0x309 JUMPI JUMP JUMPDEST PUSH1 0x24 CALLDATALOAD SWAP1 PUSH1 0x1 PUSH1 0x1 PUSH1 0xA0 SHL SUB DUP3 AND DUP3 SUB PUSH2 0x309 JUMPI JUMP INVALID LOG2 PUSH5 0x6970667358 0x22 SLT KECCAK256 ADDMOD 0xF8 SWAP4 0x27 0xD2 PUSH22 0x317B66E1FA6E59018910639769807FBCFD01AA41914C 0x26 0xDC SELFDESTRUCT STOP PUSH5 0x736F6C6343 STOP ADDMOD XOR STOP CALLER "},"methodIdentifiers":{"aTokenAddresses(address)":"296f5b8a","getReserveData(address)":"35ea6a75","setATokenAddress(address,address)":"bb74e23e","supply(address,uint256,address,uint16)":"617ba037","userBalances(address,address)":"adb51980","withdraw(address,uint256,address)":"69328dec"}}}}}