{"contracts/TimelockAaveVault.sol":{"TimelockAaveVault":{"abi":[{"inputs":[{"internalType":"address","name":"_owner","type":"address"},{"internalType":"address","name":"_asset","type":"address"},{"internalType":"address","name":"_pool","type":"address"},{"internalType":"address","name":"_aToken","type":"address"},{"internalType":"uint256","name":"_releaseTime","type":"uint256"}],"stateMutability":"nonpayable","type":"constructor"},{"anonymous":false,"inputs":[{"indexed":true,"internalType":"address","name":"owner","type":"address"},{"indexed":false,"internalType":"uint256","name":"amount","type":"uint256"}],"name":"Deposited","type":"event"},{"anonymous":false,"inputs":[{"indexed":false,"internalType":"uint256","name":"oldReleaseTime","type":"uint256"},{"indexed":false,"internalType":"uint256","name":"newReleaseTime","type":"uint256"}],"name":"LockExtended","type":"event"},{"anonymous":false,"inputs":[{"indexed":true,"internalType":"address","name":"owner","type":"address"},{"indexed":false,"internalType":"uint256","name":"amount","type":"uint256"},{"indexed":false,"internalType":"address","name":"to","type":"address"}],"name":"Withdrawn","type":"event"},{"inputs":[],"name":"aToken","outputs":[{"internalType":"contract IERC20","name":"","type":"address"}],"stateMutability":"view","type":"function"},{"inputs":[],"name":"asset","outputs":[{"internalType":"contract IERC20","name":"","type":"address"}],"stateMutability":"view","type":"function"},{"inputs":[{"internalType":"uint256","name":"amount","type":"uint256"}],"name":"deposit","outputs":[],"stateMutability":"nonpayable","type":"function"},{"inputs":[{"internalType":"uint256","name":"newReleaseTime","type":"uint256"}],"name":"extendLock","outputs":[],"stateMutability":"nonpayable","type":"function"},{"inputs":[],"name":"maxWithdrawable","outputs":[{"internalType":"uint256","name":"","type":"uint256"}],"stateMutability":"view","type":"function"},{"inputs":[],"name":"owner","outputs":[{"internalType":"address","name":"","type":"address"}],"stateMutability":"view","type":"function"},{"inputs":[],"name":"pool","outputs":[{"internalType":"contract IPool","name":"","type":"address"}],"stateMutability":"view","type":"function"},{"inputs":[],"name":"releaseTime","outputs":[{"internalType":"uint256","name":"","type":"uint256"}],"stateMutability":"view","type":"function"},{"inputs":[{"internalType":"uint256","name":"amount","type":"uint256"},{"internalType":"address","name":"to","type":"address"}],"name":"withdraw","outputs":[],"stateMutability":"nonpayable","type":"function"},{"inputs":[{"internalType":"address","name":"to","type":"address"}],"name":"withdrawAll","outputs":[],"stateMutability":"nonpayable","type":"function"}],"evm":{"bytecode":{"linkReferences":{},"object":"6101003461022657601f610c8138819003918201601f191683019291906001600160401b0384118385101761022b578160a092849260409687528339810103126102265761004c81610241565b9060209061005b828201610241565b92610067858301610241565b90608061007660608501610241565b930151946001600160a01b0390828216156101f85781169283156101ca57811693841561019d571693841561016f574286111561013a575060805260a05260c05260e05260005551610a2b9081610256823960805181818160bc01528181610269015281816105190152818161056501526106c6015260a05181818161011b0152818161029e0152818161061b0152610724015260c05181818161014e015281816102fd0152818161065f0152610755015260e0518181816104d5015261097e0152f35b60649087519062461bcd60e51b82526004820152600f60248201526e1c995b19585cd9481a5b881c185cdd608a1b6044820152fd5b60649087519062461bcd60e51b825260048201526008602482015267061546f6b656e3d360c41b6044820152fd5b875162461bcd60e51b81526004810187905260066024820152650706f6f6c3d360d41b6044820152606490fd5b875162461bcd60e51b8152600481018790526007602482015266061737365743d360cc1b6044820152606490fd5b875162461bcd60e51b815260048101879052600760248201526606f776e65723d360cc1b6044820152606490fd5b600080fd5b634e487b7160e01b600052604160045260246000fd5b51906001600160a01b03821682036102265756fe60406080815260048036101561001457600080fd5b600091823560e01c8062f714ce1461068e57806316f0115b1461064a57806338d52e0f1461060657806344ee3a1c146105485780638da5cb5b14610504578063a0c1f15e146104c0578063b6b55f2514610241578063b91d400114610224578063d3c3962f146101fc5763fa09e6301461008d57600080fd5b346101f85760203660031901126101f8578135906001600160a01b038083168084036101e2576020906100e3837f000000000000000000000000000000000000000000000000000000000000000016331461083d565b6100f08754421015610875565b6100fb8115156108e1565b6064610105610963565b968886519586948593631a4ca37b60e21b8552827f00000000000000000000000000000000000000000000000000000000000000001690850152600019602485015260448401527f0000000000000000000000000000000000000000000000000000000000000000165af180156101ee576101be575b50519182526001600160a01b0316602082015233907fcbcdbdf10631a43cc99c80acace8232649421c3f4f73919f16013d47c83a687a9080604081015b0390a280f35b602090813d83116101e7575b6101d48183610913565b810103126101e2573861017b565b600080fd5b503d6101ca565b82513d87823e3d90fd5b8280fd5b838234610220578160031936011261022057602090610219610963565b9051908152f35b5080fd5b838234610220578160031936011261022057602091549051908152f35b50829034610220576020806003193601126101f8576001600160a01b039380359290610290337f000000000000000000000000000000000000000000000000000000000000000088161461083d565b61029b8415156108aa565b857f0000000000000000000000000000000000000000000000000000000000000000168251966323b872dd60e01b88523383890152602497308982015286604482015285816064818b875af19081156104615788916104a3575b501561046b577f00000000000000000000000000000000000000000000000000000000000000001690835163095ea7b360e01b81528284820152868982015285816044818b865af1908115610461578891610434575b501561040157813b156103fd57869291608484928651958693849263617ba03760e01b8452878401528a8d8401523060448401528160648401525af180156103f3576103c1575b5050907f2da466a7b24304f47e87fa2e1e5a81b9831ce54fec19055ce277ca2f39ba42c491519283523392a280f35b67ffffffffffffffff82969396116103e157508452929350838580610392565b634e487b7160e01b8352604190528582fd5b83513d88823e3d90fd5b8680fd5b835162461bcd60e51b8152808401869052600e818a01526d185c1c1c9bdd994819985a5b195960921b6044820152606490fd5b6104549150863d881161045a575b61044c8183610913565b81019061094b565b8961034b565b503d610442565b85513d8a823e3d90fd5b835162461bcd60e51b81528084018690526013818a0152721d1c985b9cd9995c919c9bdb4819985a5b1959606a1b6044820152606490fd5b6104ba9150863d881161045a5761044c8183610913565b896102f5565b838234610220578160031936011261022057517f00000000000000000000000000000000000000000000000000000000000000006001600160a01b03168152602090f35b838234610220578160031936011261022057517f00000000000000000000000000000000000000000000000000000000000000006001600160a01b03168152602090f35b5082903461022057602036600319011261022057823592610593337f00000000000000000000000000000000000000000000000000000000000000006001600160a01b03161461083d565b825490818511156105d357508383947f4e4187a5cfd31a235276a431f3c394962d1b05cc4da52f6fa4e5460a5808ee21945582519182526020820152a180f35b606490602084519162461bcd60e51b8352820152600d60248201526c6d75737420696e63726561736560981b6044820152fd5b838234610220578160031936011261022057517f00000000000000000000000000000000000000000000000000000000000000006001600160a01b03168152602090f35b838234610220578160031936011261022057517f00000000000000000000000000000000000000000000000000000000000000006001600160a01b03168152602090f35b5090346101f857816003193601126101f85780359160243591846001600160a01b03808516908186036101f85760646020926106ed837f000000000000000000000000000000000000000000000000000000000000000016331461083d565b6106fa8554421015610875565b6107058915156108aa565b6107108115156108e1565b86519485938492631a4ca37b60e21b8452817f000000000000000000000000000000000000000000000000000000000000000016898501528b602485015260448401527f0000000000000000000000000000000000000000000000000000000000000000165af19081156103f3579085918791610804575b50036107cf5750519182526001600160a01b0316602082015233907fcbcdbdf10631a43cc99c80acace8232649421c3f4f73919f16013d47c83a687a9080604081016101b8565b6020606492519162461bcd60e51b8352820152601060248201526f7061727469616c20776974686472617760801b6044820152fd5b9150506020813d602011610835575b8161082060209383610913565b810103126108315784905138610788565b8580fd5b3d9150610813565b1561084457565b60405162461bcd60e51b81526020600482015260096024820152682737ba1037bbb732b960b91b6044820152606490fd5b1561087c57565b60405162461bcd60e51b81526020600482015260066024820152651b1bd8dad95960d21b6044820152606490fd5b156108b157565b60405162461bcd60e51b81526020600482015260086024820152670616d6f756e743d360c41b6044820152606490fd5b156108e857565b606460405162461bcd60e51b81526020600482015260046024820152630746f3d360e41b6044820152fd5b90601f8019910116810190811067ffffffffffffffff82111761093557604052565b634e487b7160e01b600052604160045260246000fd5b908160209103126101e2575180151581036101e25790565b6040516370a0823160e01b81523060048201526020816024817f00000000000000000000000000000000000000000000000000000000000000006001600160a01b03165afa9081156109e9576000916109ba575090565b90506020813d6020116109e1575b816109d560209383610913565b810103126101e2575190565b3d91506109c8565b6040513d6000823e3d90fdfea2646970667358221220de668357b8ab89de032264490cf94dcf09cb130305b613e7e062742cff9b854d64736f6c63430008180033","opcodes":"PUSH2 0x100 CALLVALUE PUSH2 0x226 JUMPI PUSH1 0x1F PUSH2 0xC81 CODESIZE DUP2 SWAP1 SUB SWAP2 DUP3 ADD PUSH1 0x1F NOT AND DUP4 ADD SWAP3 SWAP2 SWAP1 PUSH1 0x1 PUSH1 0x1 PUSH1 0x40 SHL SUB DUP5 GT DUP4 DUP6 LT OR PUSH2 0x22B JUMPI DUP2 PUSH1 0xA0 SWAP3 DUP5 SWAP3 PUSH1 0x40 SWAP7 DUP8 MSTORE DUP4 CODECOPY DUP2 ADD SUB SLT PUSH2 0x226 JUMPI PUSH2 0x4C DUP2 PUSH2 0x241 JUMP JUMPDEST SWAP1 PUSH1 0x20 SWAP1 PUSH2 0x5B DUP3 DUP3 ADD PUSH2 0x241 JUMP JUMPDEST SWAP3 PUSH2 0x67 DUP6 DUP4 ADD PUSH2 0x241 JUMP JUMPDEST SWAP1 PUSH1 0x80 PUSH2 0x76 PUSH1 0x60 DUP6 ADD PUSH2 0x241 JUMP JUMPDEST SWAP4 ADD MLOAD SWAP5 PUSH1 0x1 PUSH1 0x1 PUSH1 0xA0 SHL SUB SWAP1 DUP3 DUP3 AND ISZERO PUSH2 0x1F8 JUMPI DUP2 AND SWAP3 DUP4 ISZERO PUSH2 0x1CA JUMPI DUP2 AND SWAP4 DUP5 ISZERO PUSH2 0x19D JUMPI AND SWAP4 DUP5 ISZERO PUSH2 0x16F JUMPI TIMESTAMP DUP7 GT ISZERO PUSH2 0x13A JUMPI POP PUSH1 0x80 MSTORE PUSH1 0xA0 MSTORE PUSH1 0xC0 MSTORE PUSH1 0xE0 MSTORE PUSH1 0x0 SSTORE MLOAD PUSH2 0xA2B SWAP1 DUP2 PUSH2 0x256 DUP3 CODECOPY PUSH1 0x80 MLOAD DUP2 DUP2 DUP2 PUSH1 0xBC ADD MSTORE DUP2 DUP2 PUSH2 0x269 ADD MSTORE DUP2 DUP2 PUSH2 0x519 ADD MSTORE DUP2 DUP2 PUSH2 0x565 ADD MSTORE PUSH2 0x6C6 ADD MSTORE PUSH1 0xA0 MLOAD DUP2 DUP2 DUP2 PUSH2 0x11B ADD MSTORE DUP2 DUP2 PUSH2 0x29E ADD MSTORE DUP2 DUP2 PUSH2 0x61B ADD MSTORE PUSH2 0x724 ADD MSTORE PUSH1 0xC0 MLOAD DUP2 DUP2 DUP2 PUSH2 0x14E ADD MSTORE DUP2 DUP2 PUSH2 0x2FD ADD MSTORE DUP2 DUP2 PUSH2 0x65F ADD MSTORE PUSH2 0x755 ADD MSTORE PUSH1 0xE0 MLOAD DUP2 DUP2 DUP2 PUSH2 0x4D5 ADD MSTORE PUSH2 0x97E ADD MSTORE RETURN JUMPDEST PUSH1 0x64 SWAP1 DUP8 MLOAD SWAP1 PUSH3 0x461BCD PUSH1 0xE5 SHL DUP3 MSTORE PUSH1 0x4 DUP3 ADD MSTORE PUSH1 0xF PUSH1 0x24 DUP3 ADD MSTORE PUSH15 0x1C995B19585CD9481A5B881C185CDD PUSH1 0x8A SHL PUSH1 0x44 DUP3 ADD MSTORE REVERT JUMPDEST PUSH1 0x64 SWAP1 DUP8 MLOAD SWAP1 PUSH3 0x461BCD PUSH1 0xE5 SHL DUP3 MSTORE PUSH1 0x4 DUP3 ADD MSTORE PUSH1 0x8 PUSH1 0x24 DUP3 ADD MSTORE PUSH8 0x61546F6B656E3D3 PUSH1 0xC4 SHL PUSH1 0x44 DUP3 ADD MSTORE REVERT JUMPDEST DUP8 MLOAD PUSH3 0x461BCD PUSH1 0xE5 SHL DUP2 MSTORE PUSH1 0x4 DUP2 ADD DUP8 SWAP1 MSTORE PUSH1 0x6 PUSH1 0x24 DUP3 ADD MSTORE PUSH6 0x706F6F6C3D3 PUSH1 0xD4 SHL PUSH1 0x44 DUP3 ADD MSTORE PUSH1 0x64 SWAP1 REVERT JUMPDEST DUP8 MLOAD PUSH3 0x461BCD PUSH1 0xE5 SHL DUP2 MSTORE PUSH1 0x4 DUP2 ADD DUP8 SWAP1 MSTORE PUSH1 0x7 PUSH1 0x24 DUP3 ADD MSTORE PUSH7 0x61737365743D3 PUSH1 0xCC SHL PUSH1 0x44 DUP3 ADD MSTORE PUSH1 0x64 SWAP1 REVERT JUMPDEST DUP8 MLOAD PUSH3 0x461BCD PUSH1 0xE5 SHL DUP2 MSTORE PUSH1 0x4 DUP2 ADD DUP8 SWAP1 MSTORE PUSH1 0x7 PUSH1 0x24 DUP3 ADD MSTORE PUSH7 0x6F776E65723D3 PUSH1 0xCC SHL PUSH1 0x44 DUP3 ADD MSTORE PUSH1 0x64 SWAP1 REVERT JUMPDEST PUSH1 0x0 DUP1 REVERT JUMPDEST PUSH4 0x4E487B71 PUSH1 0xE0 SHL PUSH1 0x0 MSTORE PUSH1 0x41 PUSH1 0x4 MSTORE PUSH1 0x24 PUSH1 0x0 REVERT JUMPDEST MLOAD SWAP1 PUSH1 0x1 PUSH1 0x1 PUSH1 0xA0 SHL SUB DUP3 AND DUP3 SUB PUSH2 0x226 JUMPI JUMP INVALID PUSH1 0x40 PUSH1 0x80 DUP2 MSTORE PUSH1 0x4 DUP1 CALLDATASIZE LT ISZERO PUSH2 0x14 JUMPI PUSH1 0x0 DUP1 REVERT JUMPDEST PUSH1 0x0 SWAP2 DUP3 CALLDATALOAD PUSH1 0xE0 SHR DUP1 PUSH3 0xF714CE EQ PUSH2 0x68E JUMPI DUP1 PUSH4 0x16F0115B EQ PUSH2 0x64A JUMPI DUP1 PUSH4 0x38D52E0F EQ PUSH2 0x606 JUMPI DUP1 PUSH4 0x44EE3A1C EQ PUSH2 0x548 JUMPI DUP1 PUSH4 0x8DA5CB5B EQ PUSH2 0x504 JUMPI DUP1 PUSH4 0xA0C1F15E EQ PUSH2 0x4C0 JUMPI DUP1 PUSH4 0xB6B55F25 EQ PUSH2 0x241 JUMPI DUP1 PUSH4 0xB91D4001 EQ PUSH2 0x224 JUMPI DUP1 PUSH4 0xD3C3962F EQ PUSH2 0x1FC JUMPI PUSH4 0xFA09E630 EQ PUSH2 0x8D JUMPI PUSH1 0x0 DUP1 REVERT JUMPDEST CALLVALUE PUSH2 0x1F8 JUMPI PUSH1 0x20 CALLDATASIZE PUSH1 0x3 NOT ADD SLT PUSH2 0x1F8 JUMPI DUP2 CALLDATALOAD SWAP1 PUSH1 0x1 PUSH1 0x1 PUSH1 0xA0 SHL SUB DUP1 DUP4 AND DUP1 DUP5 SUB PUSH2 0x1E2 JUMPI PUSH1 0x20 SWAP1 PUSH2 0xE3 DUP4 PUSH32 0x0 AND CALLER EQ PUSH2 0x83D JUMP JUMPDEST PUSH2 0xF0 DUP8 SLOAD TIMESTAMP LT ISZERO PUSH2 0x875 JUMP JUMPDEST PUSH2 0xFB DUP2 ISZERO ISZERO PUSH2 0x8E1 JUMP JUMPDEST PUSH1 0x64 PUSH2 0x105 PUSH2 0x963 JUMP JUMPDEST SWAP7 DUP9 DUP7 MLOAD SWAP6 DUP7 SWAP5 DUP6 SWAP4 PUSH4 0x1A4CA37B PUSH1 0xE2 SHL DUP6 MSTORE DUP3 PUSH32 0x0 AND SWAP1 DUP6 ADD MSTORE PUSH1 0x0 NOT PUSH1 0x24 DUP6 ADD MSTORE PUSH1 0x44 DUP5 ADD MSTORE PUSH32 0x0 AND GAS CALL DUP1 ISZERO PUSH2 0x1EE JUMPI PUSH2 0x1BE JUMPI JUMPDEST POP MLOAD SWAP2 DUP3 MSTORE PUSH1 0x1 PUSH1 0x1 PUSH1 0xA0 SHL SUB AND PUSH1 0x20 DUP3 ADD MSTORE CALLER SWAP1 PUSH32 0xCBCDBDF10631A43CC99C80ACACE8232649421C3F4F73919F16013D47C83A687A SWAP1 DUP1 PUSH1 0x40 DUP2 ADD JUMPDEST SUB SWAP1 LOG2 DUP1 RETURN JUMPDEST PUSH1 0x20 SWAP1 DUP2 RETURNDATASIZE DUP4 GT PUSH2 0x1E7 JUMPI JUMPDEST PUSH2 0x1D4 DUP2 DUP4 PUSH2 0x913 JUMP JUMPDEST DUP2 ADD SUB SLT PUSH2 0x1E2 JUMPI CODESIZE PUSH2 0x17B JUMP JUMPDEST PUSH1 0x0 DUP1 REVERT JUMPDEST POP RETURNDATASIZE PUSH2 0x1CA JUMP JUMPDEST DUP3 MLOAD RETURNDATASIZE DUP8 DUP3 RETURNDATACOPY RETURNDATASIZE SWAP1 REVERT JUMPDEST DUP3 DUP1 REVERT JUMPDEST DUP4 DUP3 CALLVALUE PUSH2 0x220 JUMPI DUP2 PUSH1 0x3 NOT CALLDATASIZE ADD SLT PUSH2 0x220 JUMPI PUSH1 0x20 SWAP1 PUSH2 0x219 PUSH2 0x963 JUMP JUMPDEST SWAP1 MLOAD SWAP1 DUP2 MSTORE RETURN JUMPDEST POP DUP1 REVERT JUMPDEST DUP4 DUP3 CALLVALUE PUSH2 0x220 JUMPI DUP2 PUSH1 0x3 NOT CALLDATASIZE ADD SLT PUSH2 0x220 JUMPI PUSH1 0x20 SWAP2 SLOAD SWAP1 MLOAD SWAP1 DUP2 MSTORE RETURN JUMPDEST POP DUP3 SWAP1 CALLVALUE PUSH2 0x220 JUMPI PUSH1 0x20 DUP1 PUSH1 0x3 NOT CALLDATASIZE ADD SLT PUSH2 0x1F8 JUMPI PUSH1 0x1 PUSH1 0x1 PUSH1 0xA0 SHL SUB SWAP4 DUP1 CALLDATALOAD SWAP3 SWAP1 PUSH2 0x290 CALLER PUSH32 0x0 DUP9 AND EQ PUSH2 0x83D JUMP JUMPDEST PUSH2 0x29B DUP5 ISZERO ISZERO PUSH2 0x8AA JUMP JUMPDEST DUP6 PUSH32 0x0 AND DUP3 MLOAD SWAP7 PUSH4 0x23B872DD PUSH1 0xE0 SHL DUP9 MSTORE CALLER DUP4 DUP10 ADD MSTORE PUSH1 0x24 SWAP8 ADDRESS DUP10 DUP3 ADD MSTORE DUP7 PUSH1 0x44 DUP3 ADD MSTORE DUP6 DUP2 PUSH1 0x64 DUP2 DUP12 DUP8 GAS CALL SWAP1 DUP2 ISZERO PUSH2 0x461 JUMPI DUP9 SWAP2 PUSH2 0x4A3 JUMPI JUMPDEST POP ISZERO PUSH2 0x46B JUMPI PUSH32 0x0 AND SWAP1 DUP4 MLOAD PUSH4 0x95EA7B3 PUSH1 0xE0 SHL DUP2 MSTORE DUP3 DUP5 DUP3 ADD MSTORE DUP7 DUP10 DUP3 ADD MSTORE DUP6 DUP2 PUSH1 0x44 DUP2 DUP12 DUP7 GAS CALL SWAP1 DUP2 ISZERO PUSH2 0x461 JUMPI DUP9 SWAP2 PUSH2 0x434 JUMPI JUMPDEST POP ISZERO PUSH2 0x401 JUMPI DUP2 EXTCODESIZE ISZERO PUSH2 0x3FD JUMPI DUP7 SWAP3 SWAP2 PUSH1 0x84 DUP5 SWAP3 DUP7 MLOAD SWAP6 DUP7 SWAP4 DUP5 SWAP3 PUSH4 0x617BA037 PUSH1 0xE0 SHL DUP5 MSTORE DUP8 DUP5 ADD MSTORE DUP11 DUP14 DUP5 ADD MSTORE ADDRESS PUSH1 0x44 DUP5 ADD MSTORE DUP2 PUSH1 0x64 DUP5 ADD MSTORE GAS CALL DUP1 ISZERO PUSH2 0x3F3 JUMPI PUSH2 0x3C1 JUMPI JUMPDEST POP POP SWAP1 PUSH32 0x2DA466A7B24304F47E87FA2E1E5A81B9831CE54FEC19055CE277CA2F39BA42C4 SWAP2 MLOAD SWAP3 DUP4 MSTORE CALLER SWAP3 LOG2 DUP1 RETURN JUMPDEST PUSH8 0xFFFFFFFFFFFFFFFF DUP3 SWAP7 SWAP4 SWAP7 GT PUSH2 0x3E1 JUMPI POP DUP5 MSTORE SWAP3 SWAP4 POP DUP4 DUP6 DUP1 PUSH2 0x392 JUMP JUMPDEST PUSH4 0x4E487B71 PUSH1 0xE0 SHL DUP4 MSTORE PUSH1 0x41 SWAP1 MSTORE DUP6 DUP3 REVERT JUMPDEST DUP4 MLOAD RETURNDATASIZE DUP9 DUP3 RETURNDATACOPY RETURNDATASIZE SWAP1 REVERT JUMPDEST DUP7 DUP1 REVERT JUMPDEST DUP4 MLOAD PUSH3 0x461BCD PUSH1 0xE5 SHL DUP2 MSTORE DUP1 DUP5 ADD DUP7 SWAP1 MSTORE PUSH1 0xE DUP2 DUP11 ADD MSTORE PUSH14 0x185C1C1C9BDD994819985A5B1959 PUSH1 0x92 SHL PUSH1 0x44 DUP3 ADD MSTORE PUSH1 0x64 SWAP1 REVERT JUMPDEST PUSH2 0x454 SWAP2 POP DUP7 RETURNDATASIZE DUP9 GT PUSH2 0x45A JUMPI JUMPDEST PUSH2 0x44C DUP2 DUP4 PUSH2 0x913 JUMP JUMPDEST DUP2 ADD SWAP1 PUSH2 0x94B JUMP JUMPDEST DUP10 PUSH2 0x34B JUMP JUMPDEST POP RETURNDATASIZE PUSH2 0x442 JUMP JUMPDEST DUP6 MLOAD RETURNDATASIZE DUP11 DUP3 RETURNDATACOPY RETURNDATASIZE SWAP1 REVERT JUMPDEST DUP4 MLOAD PUSH3 0x461BCD PUSH1 0xE5 SHL DUP2 MSTORE DUP1 DUP5 ADD DUP7 SWAP1 MSTORE PUSH1 0x13 DUP2 DUP11 ADD MSTORE PUSH19 0x1D1C985B9CD9995C919C9BDB4819985A5B1959 PUSH1 0x6A SHL PUSH1 0x44 DUP3 ADD MSTORE PUSH1 0x64 SWAP1 REVERT JUMPDEST PUSH2 0x4BA SWAP2 POP DUP7 RETURNDATASIZE DUP9 GT PUSH2 0x45A JUMPI PUSH2 0x44C DUP2 DUP4 PUSH2 0x913 JUMP JUMPDEST DUP10 PUSH2 0x2F5 JUMP JUMPDEST DUP4 DUP3 CALLVALUE PUSH2 0x220 JUMPI DUP2 PUSH1 0x3 NOT CALLDATASIZE ADD SLT PUSH2 0x220 JUMPI MLOAD PUSH32 0x0 PUSH1 0x1 PUSH1 0x1 PUSH1 0xA0 SHL SUB AND DUP2 MSTORE PUSH1 0x20 SWAP1 RETURN JUMPDEST DUP4 DUP3 CALLVALUE PUSH2 0x220 JUMPI DUP2 PUSH1 0x3 NOT CALLDATASIZE ADD SLT PUSH2 0x220 JUMPI MLOAD PUSH32 0x0 PUSH1 0x1 PUSH1 0x1 PUSH1 0xA0 SHL SUB AND DUP2 MSTORE PUSH1 0x20 SWAP1 RETURN JUMPDEST POP DUP3 SWAP1 CALLVALUE PUSH2 0x220 JUMPI PUSH1 0x20 CALLDATASIZE PUSH1 0x3 NOT ADD SLT PUSH2 0x220 JUMPI DUP3 CALLDATALOAD SWAP3 PUSH2 0x593 CALLER PUSH32 0x0 PUSH1 0x1 PUSH1 0x1 PUSH1 0xA0 SHL SUB AND EQ PUSH2 0x83D JUMP JUMPDEST DUP3 SLOAD SWAP1 DUP2 DUP6 GT ISZERO PUSH2 0x5D3 JUMPI POP DUP4 DUP4 SWAP5 PUSH32 0x4E4187A5CFD31A235276A431F3C394962D1B05CC4DA52F6FA4E5460A5808EE21 SWAP5 SSTORE DUP3 MLOAD SWAP2 DUP3 MSTORE PUSH1 0x20 DUP3 ADD MSTORE LOG1 DUP1 RETURN JUMPDEST PUSH1 0x64 SWAP1 PUSH1 0x20 DUP5 MLOAD SWAP2 PUSH3 0x461BCD PUSH1 0xE5 SHL DUP4 MSTORE DUP3 ADD MSTORE PUSH1 0xD PUSH1 0x24 DUP3 ADD MSTORE PUSH13 0x6D75737420696E637265617365 PUSH1 0x98 SHL PUSH1 0x44 DUP3 ADD MSTORE REVERT JUMPDEST DUP4 DUP3 CALLVALUE PUSH2 0x220 JUMPI DUP2 PUSH1 0x3 NOT CALLDATASIZE ADD SLT PUSH2 0x220 JUMPI MLOAD PUSH32 0x0 PUSH1 0x1 PUSH1 0x1 PUSH1 0xA0 SHL SUB AND DUP2 MSTORE PUSH1 0x20 SWAP1 RETURN JUMPDEST DUP4 DUP3 CALLVALUE PUSH2 0x220 JUMPI DUP2 PUSH1 0x3 NOT CALLDATASIZE ADD SLT PUSH2 0x220 JUMPI MLOAD PUSH32 0x0 PUSH1 0x1 PUSH1 0x1 PUSH1 0xA0 SHL SUB AND DUP2 MSTORE PUSH1 0x20 SWAP1 RETURN JUMPDEST POP SWAP1 CALLVALUE PUSH2 0x1F8 JUMPI DUP2 PUSH1 0x3 NOT CALLDATASIZE ADD SLT PUSH2 0x1F8 JUMPI DUP1 CALLDATALOAD SWAP2 PUSH1 0x24 CALLDATALOAD SWAP2 DUP5 PUSH1 0x1 PUSH1 0x1 PUSH1 0xA0 SHL SUB DUP1 DUP6 AND SWAP1 DUP2 DUP7 SUB PUSH2 0x1F8 JUMPI PUSH1 0x64 PUSH1 0x20 SWAP3 PUSH2 0x6ED DUP4 PUSH32 0x0 AND CALLER EQ PUSH2 0x83D JUMP JUMPDEST PUSH2 0x6FA DUP6 SLOAD TIMESTAMP LT ISZERO PUSH2 0x875 JUMP JUMPDEST PUSH2 0x705 DUP10 ISZERO ISZERO PUSH2 0x8AA JUMP JUMPDEST PUSH2 0x710 DUP2 ISZERO ISZERO PUSH2 0x8E1 JUMP JUMPDEST DUP7 MLOAD SWAP5 DUP6 SWAP4 DUP5 SWAP3 PUSH4 0x1A4CA37B PUSH1 0xE2 SHL DUP5 MSTORE DUP2 PUSH32 0x0 AND DUP10 DUP6 ADD MSTORE DUP12 PUSH1 0x24 DUP6 ADD MSTORE PUSH1 0x44 DUP5 ADD MSTORE PUSH32 0x0 AND GAS CALL SWAP1 DUP2 ISZERO PUSH2 0x3F3 JUMPI SWAP1 DUP6 SWAP2 DUP8 SWAP2 PUSH2 0x804 JUMPI JUMPDEST POP SUB PUSH2 0x7CF JUMPI POP MLOAD SWAP2 DUP3 MSTORE PUSH1 0x1 PUSH1 0x1 PUSH1 0xA0 SHL SUB AND PUSH1 0x20 DUP3 ADD MSTORE CALLER SWAP1 PUSH32 0xCBCDBDF10631A43CC99C80ACACE8232649421C3F4F73919F16013D47C83A687A SWAP1 DUP1 PUSH1 0x40 DUP2 ADD PUSH2 0x1B8 JUMP JUMPDEST PUSH1 0x20 PUSH1 0x64 SWAP3 MLOAD SWAP2 PUSH3 0x461BCD PUSH1 0xE5 SHL DUP4 MSTORE DUP3 ADD MSTORE PUSH1 0x10 PUSH1 0x24 DUP3 ADD MSTORE PUSH16 0x7061727469616C207769746864726177 PUSH1 0x80 SHL PUSH1 0x44 DUP3 ADD MSTORE REVERT JUMPDEST SWAP2 POP POP PUSH1 0x20 DUP2 RETURNDATASIZE PUSH1 0x20 GT PUSH2 0x835 JUMPI JUMPDEST DUP2 PUSH2 0x820 PUSH1 0x20 SWAP4 DUP4 PUSH2 0x913 JUMP JUMPDEST DUP2 ADD SUB SLT PUSH2 0x831 JUMPI DUP5 SWAP1 MLOAD CODESIZE PUSH2 0x788 JUMP JUMPDEST DUP6 DUP1 REVERT JUMPDEST RETURNDATASIZE SWAP2 POP PUSH2 0x813 JUMP JUMPDEST ISZERO PUSH2 0x844 JUMPI JUMP JUMPDEST PUSH1 0x40 MLOAD PUSH3 0x461BCD PUSH1 0xE5 SHL DUP2 MSTORE PUSH1 0x20 PUSH1 0x4 DUP3 ADD MSTORE PUSH1 0x9 PUSH1 0x24 DUP3 ADD MSTORE PUSH9 0x2737BA1037BBB732B9 PUSH1 0xB9 SHL PUSH1 0x44 DUP3 ADD MSTORE PUSH1 0x64 SWAP1 REVERT JUMPDEST ISZERO PUSH2 0x87C JUMPI JUMP JUMPDEST PUSH1 0x40 MLOAD PUSH3 0x461BCD PUSH1 0xE5 SHL DUP2 MSTORE PUSH1 0x20 PUSH1 0x4 DUP3 ADD MSTORE PUSH1 0x6 PUSH1 0x24 DUP3 ADD MSTORE PUSH6 0x1B1BD8DAD959 PUSH1 0xD2 SHL PUSH1 0x44 DUP3 ADD MSTORE PUSH1 0x64 SWAP1 REVERT JUMPDEST ISZERO PUSH2 0x8B1 JUMPI JUMP JUMPDEST PUSH1 0x40 MLOAD PUSH3 0x461BCD PUSH1 0xE5 SHL DUP2 MSTORE PUSH1 0x20 PUSH1 0x4 DUP3 ADD MSTORE PUSH1 0x8 PUSH1 0x24 DUP3 ADD MSTORE PUSH8 0x616D6F756E743D3 PUSH1 0xC4 SHL PUSH1 0x44 DUP3 ADD MSTORE PUSH1 0x64 SWAP1 REVERT JUMPDEST ISZERO PUSH2 0x8E8 JUMPI JUMP JUMPDEST PUSH1 0x64 PUSH1 0x40 MLOAD PUSH3 0x461BCD PUSH1 0xE5 SHL DUP2 MSTORE PUSH1 0x20 PUSH1 0x4 DUP3 ADD MSTORE PUSH1 0x4 PUSH1 0x24 DUP3 ADD MSTORE PUSH4 0x746F3D3 PUSH1 0xE4 SHL PUSH1 0x44 DUP3 ADD MSTORE REVERT JUMPDEST SWAP1 PUSH1 0x1F DUP1 NOT SWAP2 ADD AND DUP2 ADD SWAP1 DUP2 LT PUSH8 0xFFFFFFFFFFFFFFFF DUP3 GT OR PUSH2 0x935 JUMPI PUSH1 0x40 MSTORE JUMP JUMPDEST PUSH4 0x4E487B71 PUSH1 0xE0 SHL PUSH1 0x0 MSTORE PUSH1 0x41 PUSH1 0x4 MSTORE PUSH1 0x24 PUSH1 0x0 REVERT JUMPDEST SWAP1 DUP2 PUSH1 0x20 SWAP2 SUB SLT PUSH2 0x1E2 JUMPI MLOAD DUP1 ISZERO ISZERO DUP2 SUB PUSH2 0x1E2 JUMPI SWAP1 JUMP JUMPDEST PUSH1 0x40 MLOAD PUSH4 0x70A08231 PUSH1 0xE0 SHL DUP2 MSTORE ADDRESS PUSH1 0x4 DUP3 ADD MSTORE PUSH1 0x20 DUP2 PUSH1 0x24 DUP2 PUSH32 0x0 PUSH1 0x1 PUSH1 0x1 PUSH1 0xA0 SHL SUB AND GAS STATICCALL SWAP1 DUP2 ISZERO PUSH2 0x9E9 JUMPI PUSH1 0x0 SWAP2 PUSH2 0x9BA JUMPI POP SWAP1 JUMP JUMPDEST SWAP1 POP PUSH1 0x20 DUP2 RETURNDATASIZE PUSH1 0x20 GT PUSH2 0x9E1 JUMPI JUMPDEST DUP2 PUSH2 0x9D5 PUSH1 0x20 SWAP4 DUP4 PUSH2 0x913 JUMP JUMPDEST DUP2 ADD SUB SLT PUSH2 0x1E2 JUMPI MLOAD SWAP1 JUMP JUMPDEST RETURNDATASIZE SWAP2 POP PUSH2 0x9C8 JUMP JUMPDEST PUSH1 0x40 MLOAD RETURNDATASIZE PUSH1 0x0 DUP3 RETURNDATACOPY RETURNDATASIZE SWAP1 REVERT INVALID LOG2 PUSH5 0x6970667358 0x22 SLT KECCAK256 0xDE PUSH7 0x8357B8AB89DE03 0x22 PUSH5 0x490CF94DCF MULMOD 0xCB SGT SUB SDIV 0xB6 SGT 0xE7 0xE0 PUSH3 0x742CFF SWAP12 DUP6 0x4D PUSH5 0x736F6C6343 STOP ADDMOD XOR STOP CALLER "},"methodIdentifiers":{"aToken()":"a0c1f15e","asset()":"38d52e0f","deposit(uint256)":"b6b55f25","extendLock(uint256)":"44ee3a1c","maxWithdrawable()":"d3c3962f","owner()":"8da5cb5b","pool()":"16f0115b","releaseTime()":"b91d4001","withdraw(uint256,address)":"00f714ce","withdrawAll(address)":"fa09e630"}}}}}