{"contracts/mocks/MockPool.sol":{"MockPool":{"abi":[{"inputs":[{"internalType":"address","name":"","type":"address"}],"name":"aTokenAddresses","outputs":[{"internalType":"address","name":"","type":"address"}],"stateMutability":"view","type":"function"},{"inputs":[{"internalType":"address","name":"asset","type":"address"}],"name":"getReserveData","outputs":[{"internalType":"uint256","name":"configuration","type":"uint256"},{"internalType":"uint128","name":"liquidityIndex","type":"uint128"},{"internalType":"uint128","name":"variableBorrowIndex","type":"uint128"},{"internalType":"uint128","name":"currentLiquidityRate","type":"uint128"},{"internalType":"uint128","name":"currentVariableBorrowRate","type":"uint128"},{"internalType":"uint128","name":"currentStableBorrowRate","type":"uint128"},{"internalType":"uint40","name":"lastUpdateTimestamp","type":"uint40"},{"internalType":"address","name":"aTokenAddress","type":"address"},{"internalType":"address","name":"stableDebtTokenAddress","type":"address"},{"internalType":"address","name":"variableDebtTokenAddress","type":"address"},{"internalType":"address","name":"interestRateStrategyAddress","type":"address"},{"internalType":"uint8","name":"id","type":"uint8"}],"stateMutability":"view","type":"function"},{"inputs":[{"internalType":"address","name":"asset","type":"address"},{"internalType":"address","name":"aToken","type":"address"}],"name":"setATokenAddress","outputs":[],"stateMutability":"nonpayable","type":"function"},{"inputs":[{"internalType":"address","name":"asset","type":"address"},{"internalType":"uint256","name":"amount","type":"uint256"},{"internalType":"address","name":"onBehalfOf","type":"address"},{"internalType":"uint16","name":"referralCode","type":"uint16"}],"name":"supply","outputs":[],"stateMutability":"nonpayable","type":"function"},{"inputs":[{"internalType":"address","name":"","type":"address"},{"internalType":"address","name":"","type":"address"}],"name":"userBalances","outputs":[{"internalType":"uint256","name":"","type":"uint256"}],"stateMutability":"view","type":"function"},{"inputs":[{"internalType":"address","name":"asset","type":"address"},{"internalType":"uint256","name":"amount","type":"uint256"},{"internalType":"address","name":"to","type":"address"}],"name":"withdraw","outputs":[{"internalType":"uint256","name":"","type":"uint256"}],"stateMutability":"nonpayable","type":"function"}],"evm":{"bytecode":{"linkReferences":{},"object":"608080604052346100165761037e908161001c8239f35b600080fdfe60806040818152600436101561001457600080fd5b600091823560e01c908163296f5b8a146102c65750806335ea6a7514610235578063617ba037146101bd57806369328dec146100fb578063adb51980146100b35763bb74e23e1461006457600080fd5b346100af57806003193601126100af5761007c610301565b610084610332565b6001600160a01b039182168452602084905291832080546001600160a01b0319169190921617905580f35b5080fd5b50346100af57806003193601126100af57806020926100d0610301565b6100d8610332565b6001600160a01b0391821683526001865283832091168252845220549051908152f35b50346100af5760603660031901126100af57610115610301565b906024359161012261031c565b5060018060a01b03169283815260209360018552828220338352855283838320541061018257815260018452818120338252845281812080549184830392831161016e57505551908152f35b634e487b7160e01b81526011600452602490fd5b825162461bcd60e51b8152600481018690526014602482015273496e73756666696369656e742062616c616e636560601b6044820152606490fd5b50346100af5760803660031901126100af576101d7610301565b6101df61031c565b9060643561ffff8116036102315760018060a01b0380911684526001602052828420911683526020528120805490602435820180921161021d575580f35b634e487b7160e01b83526011600452602483fd5b8380fd5b50346100af5760203660031901126100af5761018091610253610301565b60018060a01b0380911682528160205282822054168251928284526b033b2e3c9fd0803ce8000000908160208601528401528160608401528160808401528160a084015264ffffffffff421660c084015260e0830152806101008301528061012083015280610140830152610160820152f35b919050346102fd5760203660031901126102fd576020926001600160a01b039190826102f0610301565b1681528085522054168152f35b8280fd5b600435906001600160a01b038216820361031757565b600080fd5b604435906001600160a01b038216820361031757565b602435906001600160a01b03821682036103175756fea2646970667358221220a80721cda87834a74a2b0000cc2e8af0cab68f4f5aa151f035fa660aa5046ab564736f6c63430008180033","opcodes":"PUSH1 0x80 DUP1 PUSH1 0x40 MSTORE CALLVALUE PUSH2 0x16 JUMPI PUSH2 0x37E SWAP1 DUP2 PUSH2 0x1C DUP3 CODECOPY RETURN JUMPDEST PUSH1 0x0 DUP1 REVERT INVALID PUSH1 0x80 PUSH1 0x40 DUP2 DUP2 MSTORE PUSH1 0x4 CALLDATASIZE LT ISZERO PUSH2 0x14 JUMPI PUSH1 0x0 DUP1 REVERT JUMPDEST PUSH1 0x0 SWAP2 DUP3 CALLDATALOAD PUSH1 0xE0 SHR SWAP1 DUP2 PUSH4 0x296F5B8A EQ PUSH2 0x2C6 JUMPI POP DUP1 PUSH4 0x35EA6A75 EQ PUSH2 0x235 JUMPI DUP1 PUSH4 0x617BA037 EQ PUSH2 0x1BD JUMPI DUP1 PUSH4 0x69328DEC EQ PUSH2 0xFB JUMPI DUP1 PUSH4 0xADB51980 EQ PUSH2 0xB3 JUMPI PUSH4 0xBB74E23E EQ PUSH2 0x64 JUMPI PUSH1 0x0 DUP1 REVERT JUMPDEST CALLVALUE PUSH2 0xAF JUMPI DUP1 PUSH1 0x3 NOT CALLDATASIZE ADD SLT PUSH2 0xAF JUMPI PUSH2 0x7C PUSH2 0x301 JUMP JUMPDEST PUSH2 0x84 PUSH2 0x332 JUMP JUMPDEST PUSH1 0x1 PUSH1 0x1 PUSH1 0xA0 SHL SUB SWAP2 DUP3 AND DUP5 MSTORE PUSH1 0x20 DUP5 SWAP1 MSTORE SWAP2 DUP4 KECCAK256 DUP1 SLOAD PUSH1 0x1 PUSH1 0x1 PUSH1 0xA0 SHL SUB NOT AND SWAP2 SWAP1 SWAP3 AND OR SWAP1 SSTORE DUP1 RETURN JUMPDEST POP DUP1 REVERT JUMPDEST POP CALLVALUE PUSH2 0xAF JUMPI DUP1 PUSH1 0x3 NOT CALLDATASIZE ADD SLT PUSH2 0xAF JUMPI DUP1 PUSH1 0x20 SWAP3 PUSH2 0xD0 PUSH2 0x301 JUMP JUMPDEST PUSH2 0xD8 PUSH2 0x332 JUMP JUMPDEST PUSH1 0x1 PUSH1 0x1 PUSH1 0xA0 SHL SUB SWAP2 DUP3 AND DUP4 MSTORE PUSH1 0x1 DUP7 MSTORE DUP4 DUP4 KECCAK256 SWAP2 AND DUP3 MSTORE DUP5 MSTORE KECCAK256 SLOAD SWAP1 MLOAD SWAP1 DUP2 MSTORE RETURN JUMPDEST POP CALLVALUE PUSH2 0xAF JUMPI PUSH1 0x60 CALLDATASIZE PUSH1 0x3 NOT ADD SLT PUSH2 0xAF JUMPI PUSH2 0x115 PUSH2 0x301 JUMP JUMPDEST SWAP1 PUSH1 0x24 CALLDATALOAD SWAP2 PUSH2 0x122 PUSH2 0x31C JUMP JUMPDEST POP PUSH1 0x1 DUP1 PUSH1 0xA0 SHL SUB AND SWAP3 DUP4 DUP2 MSTORE PUSH1 0x20 SWAP4 PUSH1 0x1 DUP6 MSTORE DUP3 DUP3 KECCAK256 CALLER DUP4 MSTORE DUP6 MSTORE DUP4 DUP4 DUP4 KECCAK256 SLOAD LT PUSH2 0x182 JUMPI DUP2 MSTORE PUSH1 0x1 DUP5 MSTORE DUP2 DUP2 KECCAK256 CALLER DUP3 MSTORE DUP5 MSTORE DUP2 DUP2 KECCAK256 DUP1 SLOAD SWAP2 DUP5 DUP4 SUB SWAP3 DUP4 GT PUSH2 0x16E JUMPI POP SSTORE MLOAD SWAP1 DUP2 MSTORE RETURN JUMPDEST PUSH4 0x4E487B71 PUSH1 0xE0 SHL DUP2 MSTORE PUSH1 0x11 PUSH1 0x4 MSTORE PUSH1 0x24 SWAP1 REVERT JUMPDEST DUP3 MLOAD PUSH3 0x461BCD PUSH1 0xE5 SHL DUP2 MSTORE PUSH1 0x4 DUP2 ADD DUP7 SWAP1 MSTORE PUSH1 0x14 PUSH1 0x24 DUP3 ADD MSTORE PUSH20 0x496E73756666696369656E742062616C616E6365 PUSH1 0x60 SHL PUSH1 0x44 DUP3 ADD MSTORE PUSH1 0x64 SWAP1 REVERT JUMPDEST POP CALLVALUE PUSH2 0xAF JUMPI PUSH1 0x80 CALLDATASIZE PUSH1 0x3 NOT ADD SLT PUSH2 0xAF JUMPI PUSH2 0x1D7 PUSH2 0x301 JUMP JUMPDEST PUSH2 0x1DF PUSH2 0x31C JUMP JUMPDEST SWAP1 PUSH1 0x64 CALLDATALOAD PUSH2 0xFFFF DUP2 AND SUB PUSH2 0x231 JUMPI PUSH1 0x1 DUP1 PUSH1 0xA0 SHL SUB DUP1 SWAP2 AND DUP5 MSTORE PUSH1 0x1 PUSH1 0x20 MSTORE DUP3 DUP5 KECCAK256 SWAP2 AND DUP4 MSTORE PUSH1 0x20 MSTORE DUP2 KECCAK256 DUP1 SLOAD SWAP1 PUSH1 0x24 CALLDATALOAD DUP3 ADD DUP1 SWAP3 GT PUSH2 0x21D JUMPI SSTORE DUP1 RETURN JUMPDEST PUSH4 0x4E487B71 PUSH1 0xE0 SHL DUP4 MSTORE PUSH1 0x11 PUSH1 0x4 MSTORE PUSH1 0x24 DUP4 REVERT JUMPDEST DUP4 DUP1 REVERT JUMPDEST POP CALLVALUE PUSH2 0xAF JUMPI PUSH1 0x20 CALLDATASIZE PUSH1 0x3 NOT ADD SLT PUSH2 0xAF JUMPI PUSH2 0x180 SWAP2 PUSH2 0x253 PUSH2 0x301 JUMP JUMPDEST PUSH1 0x1 DUP1 PUSH1 0xA0 SHL SUB DUP1 SWAP2 AND DUP3 MSTORE DUP2 PUSH1 0x20 MSTORE DUP3 DUP3 KECCAK256 SLOAD AND DUP3 MLOAD SWAP3 DUP3 DUP5 MSTORE PUSH12 0x33B2E3C9FD0803CE8000000 SWAP1 DUP2 PUSH1 0x20 DUP7 ADD MSTORE DUP5 ADD MSTORE DUP2 PUSH1 0x60 DUP5 ADD MSTORE DUP2 PUSH1 0x80 DUP5 ADD MSTORE DUP2 PUSH1 0xA0 DUP5 ADD MSTORE PUSH5 0xFFFFFFFFFF TIMESTAMP AND PUSH1 0xC0 DUP5 ADD MSTORE PUSH1 0xE0 DUP4 ADD MSTORE DUP1 PUSH2 0x100 DUP4 ADD MSTORE DUP1 PUSH2 0x120 DUP4 ADD MSTORE DUP1 PUSH2 0x140 DUP4 ADD MSTORE PUSH2 0x160 DUP3 ADD MSTORE RETURN JUMPDEST SWAP2 SWAP1 POP CALLVALUE PUSH2 0x2FD JUMPI PUSH1 0x20 CALLDATASIZE PUSH1 0x3 NOT ADD SLT PUSH2 0x2FD JUMPI PUSH1 0x20 SWAP3 PUSH1 0x1 PUSH1 0x1 PUSH1 0xA0 SHL SUB SWAP2 SWAP1 DUP3 PUSH2 0x2F0 PUSH2 0x301 JUMP JUMPDEST AND DUP2 MSTORE DUP1 DUP6 MSTORE KECCAK256 SLOAD AND DUP2 MSTORE RETURN JUMPDEST DUP3 DUP1 REVERT JUMPDEST PUSH1 0x4 CALLDATALOAD SWAP1 PUSH1 0x1 PUSH1 0x1 PUSH1 0xA0 SHL SUB DUP3 AND DUP3 SUB PUSH2 0x317 JUMPI JUMP JUMPDEST PUSH1 0x0 DUP1 REVERT JUMPDEST PUSH1 0x44 CALLDATALOAD SWAP1 PUSH1 0x1 PUSH1 0x1 PUSH1 0xA0 SHL SUB DUP3 AND DUP3 SUB PUSH2 0x317 JUMPI JUMP JUMPDEST PUSH1 0x24 CALLDATALOAD SWAP1 PUSH1 0x1 PUSH1 0x1 PUSH1 0xA0 SHL SUB DUP3 AND DUP3 SUB PUSH2 0x317 JUMPI JUMP INVALID LOG2 PUSH5 0x6970667358 0x22 SLT KECCAK256 0xA8 SMOD 0x21 0xCD 0xA8 PUSH25 0x34A74A2B0000CC2E8AF0CAB68F4F5AA151F035FA660AA5046A 0xB5 PUSH5 0x736F6C6343 STOP ADDMOD XOR STOP CALLER "},"methodIdentifiers":{"aTokenAddresses(address)":"296f5b8a","getReserveData(address)":"35ea6a75","setATokenAddress(address,address)":"bb74e23e","supply(address,uint256,address,uint16)":"617ba037","userBalances(address,address)":"adb51980","withdraw(address,uint256,address)":"69328dec"}}}}}